{
  "contractName": "PromiseDapp",
  "abi": [
    {
      "constant": true,
      "inputs": [
        {
          "name": "",
          "type": "uint256"
        }
      ],
      "name": "ProList",
      "outputs": [
        {
          "name": "party1",
          "type": "address"
        },
        {
          "name": "party2",
          "type": "address"
        },
        {
          "name": "promises",
          "type": "string"
        }
      ],
      "payable": false,
      "stateMutability": "view",
      "type": "function"
    },
    {
      "constant": true,
      "inputs": [
        {
          "name": "",
          "type": "uint256"
        }
      ],
      "name": "pro",
      "outputs": [
        {
          "name": "party1",
          "type": "address"
        },
        {
          "name": "party2",
          "type": "address"
        },
        {
          "name": "promises",
          "type": "string"
        }
      ],
      "payable": false,
      "stateMutability": "view",
      "type": "function"
    },
    {
      "constant": true,
      "inputs": [],
      "name": "totalPromises",
      "outputs": [
        {
          "name": "",
          "type": "uint256"
        }
      ],
      "payable": false,
      "stateMutability": "view",
      "type": "function"
    },
    {
      "constant": false,
      "inputs": [
        {
          "name": "_party1",
          "type": "address"
        },
        {
          "name": "_party2",
          "type": "address"
        },
        {
          "name": "_promises",
          "type": "string"
        }
      ],
      "name": "storePromises",
      "outputs": [
        {
          "name": "",
          "type": "uint256"
        }
      ],
      "payable": false,
      "stateMutability": "nonpayable",
      "type": "function"
    },
    {
      "constant": true,
      "inputs": [
        {
          "name": "proNum",
          "type": "uint256"
        }
      ],
      "name": "displayPromise",
      "outputs": [
        {
          "name": "",
          "type": "string"
        }
      ],
      "payable": false,
      "stateMutability": "view",
      "type": "function"
    }
  ],
  "bytecode": "0x608060405234801561001057600080fd5b50610bea806100206000396000f3fe608060405260043610610066576000357c010000000000000000000000000000000000000000000000000000000090048062a501871461006b578063383dbee814610185578063724b2b0c146102a1578063a5c9fd9d146103bb578063e3644c9b146103e6575b600080fd5b34801561007757600080fd5b506100a46004803603602081101561008e57600080fd5b810190808035906020019092919050505061049a565b604051808473ffffffffffffffffffffffffffffffffffffffff1673ffffffffffffffffffffffffffffffffffffffff1681526020018373ffffffffffffffffffffffffffffffffffffffff1673ffffffffffffffffffffffffffffffffffffffff16815260200180602001828103825283818151815260200191508051906020019080838360005b8381101561014857808201518184015260208101905061012d565b50505050905090810190601f1680156101755780820380516001836020036101000a031916815260200191505b5094505050505060405180910390f35b34801561019157600080fd5b5061028b600480360360608110156101a857600080fd5b81019080803573ffffffffffffffffffffffffffffffffffffffff169060200190929190803573ffffffffffffffffffffffffffffffffffffffff1690602001909291908035906020019064010000000081111561020557600080fd5b82018360208201111561021757600080fd5b8035906020019184600183028401116401000000008311171561023957600080fd5b91908080601f016020809104026020016040519081016040528093929190818152602001838380828437600081840152601f19601f82011690508083019250505050505050919291929050505061059c565b6040518082815260200191505060405180910390f35b3480156102ad57600080fd5b506102da600480360360208110156102c457600080fd5b81019080803590602001909291905050506107ab565b604051808473ffffffffffffffffffffffffffffffffffffffff1673ffffffffffffffffffffffffffffffffffffffff1681526020018373ffffffffffffffffffffffffffffffffffffffff1673ffffffffffffffffffffffffffffffffffffffff16815260200180602001828103825283818151815260200191508051906020019080838360005b8381101561037e578082015181840152602081019050610363565b50505050905090810190601f1680156103ab5780820380516001836020036101000a031916815260200191505b5094505050505060405180910390f35b3480156103c757600080fd5b506103d06108bc565b6040518082815260200191505060405180910390f35b3480156103f257600080fd5b5061041f6004803603602081101561040957600080fd5b81019080803590602001909291905050506108c2565b6040518080602001828103825283818151815260200191508051906020019080838360005b8381101561045f578082015181840152602081019050610444565b50505050905090810190601f16801561048c5780820380516001836020036101000a031916815260200191505b509250505060405180910390f35b60026020528060005260406000206000915090508060000160009054906101000a900473ffffffffffffffffffffffffffffffffffffffff16908060010160009054906101000a900473ffffffffffffffffffffffffffffffffffffffff1690806002018054600181600116156101000203166002900480601f0160208091040260200160405190810160405280929190818152602001828054600181600116156101000203166002900480156105925780601f1061056757610100808354040283529160200191610592565b820191906000526020600020905b81548152906001019060200180831161057557829003601f168201915b5050505050905083565b60006105a6610acb565b6060604051908101604052808673ffffffffffffffffffffffffffffffffffffffff1681526020018573ffffffffffffffffffffffffffffffffffffffff1681526020018481525090506000819080600181540180825580915050906001820390600052602060002090600302016000909192909190915060008201518160000160006101000a81548173ffffffffffffffffffffffffffffffffffffffff021916908373ffffffffffffffffffffffffffffffffffffffff16021790555060208201518160010160006101000a81548173ffffffffffffffffffffffffffffffffffffffff021916908373ffffffffffffffffffffffffffffffffffffffff16021790555060408201518160020190805190602001906106c8929190610b19565b5050505080600260006001600081548092919060010191905055815260200190815260200160002060008201518160000160006101000a81548173ffffffffffffffffffffffffffffffffffffffff021916908373ffffffffffffffffffffffffffffffffffffffff16021790555060208201518160010160006101000a81548173ffffffffffffffffffffffffffffffffffffffff021916908373ffffffffffffffffffffffffffffffffffffffff160217905550604082015181600201908051906020019061079a929190610b19565b509050506001549150509392505050565b6000818154811015156107ba57fe5b90600052602060002090600302016000915090508060000160009054906101000a900473ffffffffffffffffffffffffffffffffffffffff16908060010160009054906101000a900473ffffffffffffffffffffffffffffffffffffffff1690806002018054600181600116156101000203166002900480601f0160208091040260200160405190810160405280929190818152602001828054600181600116156101000203166002900480156108b25780601f10610887576101008083540402835291602001916108b2565b820191906000526020600020905b81548152906001019060200180831161089557829003601f168201915b5050505050905083565b60015481565b606060006002600084815260200190815260200160002060000160009054906101000a900473ffffffffffffffffffffffffffffffffffffffff16905060006002600085815260200190815260200160002060010160009054906101000a900473ffffffffffffffffffffffffffffffffffffffff1690508173ffffffffffffffffffffffffffffffffffffffff163373ffffffffffffffffffffffffffffffffffffffff16148061099f57508073ffffffffffffffffffffffffffffffffffffffff163373ffffffffffffffffffffffffffffffffffffffff16145b1515610a13576040517f08c379a00000000000000000000000000000000000000000000000000000000081526004018080602001828103825260148152602001807f4e6f7420746865207269676874206f776e65727300000000000000000000000081525060200191505060405180910390fd5b600260008581526020019081526020016000206002018054600181600116156101000203166002900480601f016020809104026020016040519081016040528092919081815260200182805460018160011615610100020316600290048015610abd5780601f10610a9257610100808354040283529160200191610abd565b820191906000526020600020905b815481529060010190602001808311610aa057829003601f168201915b505050505092505050919050565b606060405190810160405280600073ffffffffffffffffffffffffffffffffffffffff168152602001600073ffffffffffffffffffffffffffffffffffffffff168152602001606081525090565b828054600181600116156101000203166002900490600052602060002090601f016020900481019282601f10610b5a57805160ff1916838001178555610b88565b82800160010185558215610b88579182015b82811115610b87578251825591602001919060010190610b6c565b5b509050610b959190610b99565b5090565b610bbb91905b80821115610bb7576000816000905550600101610b9f565b5090565b9056fea165627a7a72305820ca4780940a0ec80ad23239ce29c85674dc6e0ad438b8c4a0fa1d0910961a251c0029",
  "source": "pragma solidity >=0.4.21 <0.7.0;\n\ncontract PromiseDapp{\n\n    struct Promise\n    {\n    address  party1;\n    address  party2;\n    string promises;\n    }\n    Promise[] public pro ;\n\nuint public totalPromises;\nmapping(uint=>Promise) public ProList;\n\n    function storePromises(address _party1,address _party2,string memory _promises)public returns(uint)\n    {\n        Promise memory newPromise = Promise({\n\n            party1:_party1,\n            party2:_party2,\n            promises:_promises\n        });\n\n        pro.push(newPromise);\n\n        ProList[totalPromises++] = newPromise;\n        return totalPromises;\n    }\n\n    function displayPromise(uint proNum) public view  returns(string memory){\n        address p1 = ProList[proNum].party1;\n        address p2 = ProList[proNum].party2;\n        require(msg.sender==p1 || msg.sender==p2,\"Not the right owners\");\n        return ProList[proNum].promises;\n\n    }\n    //\"0xca35b7d915458ef540ade6068dfe2f44e8fa733c\",\"0x14723a09acff6d2a60dcdf7aa4aff308fddc160c\",\"Meet at 12\"\n}",
  "sourcePath": "/root/Documents/Dapp/Dapp2/contracts/PromiseDapp.sol",
  "compiler": {
    "name": "solc",
    "version": "0.5.1+commit.c8a2cb62.Emscripten.clang"
  },
  "schemaVersion": "3.0.23",
  "updatedAt": "2020-02-18T09:06:35.081Z",
  "networkType": "ethereum",
  "devdoc": {
    "methods": {}
  },
  "userdoc": {
    "methods": {}
  }
}